:1000000014C02CC02BC02AC029C028C027C026C0BD
:1000100025C024C023C022C021C020C01FC01EC0D4
:100020001DC01CC01BC01AC019C011241FBECFEDBB
:10003000CDBF10E0A0E6B0E0E0E0F6E002C0059041
:100040000D92A636B107D9F720E0A6E6B0E001C0D0
:100050001D92A838B207E1F7B5D2D0C2D1CF12B8FD
:1000600081E089B988E08AB986E083B908955D9B0B
:10007000FECF8CB90895CF93DF93D62FC42F80691C
:10008000F6DF8D2FF4DF8C2FF2DFDF91CF91089513
:10009000CF93C62F8068EBDF8C2FE9DF80E0E7DFAE
:1000A000CF910895CF93C62F806CE1DF8C2FDFDFD7
:1000B000CF910895809906C0109287008CE38093B9
:1000C0006200089589E08093870084E28093620053
:1000D00008950F931F93CF93DF9389B311E0982F67
:1000E000927081FF10E089B301E0282F217080FF1A
:1000F00000E0C0B3D6B3809187008930D1F4829BF1
:1001000018C08091860081111092860010936100C2
:100110000093600010926D0010926C0010926B00C2
:1001200010926A00109269001092680010926700A5
:100130004FC1911143C121113CC1809161008111D6
:1001400005C080916000882309F43DC181E080935F
:10015000670010926D0010926C0010926B0010926C
:100160006A00109269001092680083EC99E0019790
:10017000F1F700C0000080916700811112C09EC09D
:10018000911102C0222369F010926700E3ECF9E0BC
:100190003197F1F700C0000080916700882309F4CF
:1001A0008BC0C4FD0FC08091640084FF0BC010920F
:1001B00087008CE38093620083EC99E00197F1F76C
:1001C00000C00000C6FD0DC08091640086FF09C01C
:1001D00089E080938700E3ECF9E03197F1F700C004
:1001E0000000D2FD11C08091630082FF0DC080919C
:1001F0008700882319F081508093870083EC99E071
:100200000197F1F700C00000D6FD11C08091630096
:1002100086FF0DC0809187008F3018F48F5F809328
:100220008700E3ECF9E03197F1F700C00000C3FD6F
:100230000EC08091640083FF0AC060E08091870057
:1002400031DF83EC99E00197F1F700C00000C5FDB4
:100250000EC08091640085FF0AC06AE0809187002B
:1002600021DFE3ECF9E03197F1F700C00000D5FDA4
:100270000EC08091630085FF0AC067E5809187000A
:1002800011DF83EC99E00197F1F700C00000DD2356
:1002900074F080916300882354F460E580918700B6
:1002A00001DFE3ECF9E03197F1F700C000001093B3
:1002B0006100009360008CC0911115C080916100B5
:1002C000882349F181E080936D0010926B001092B9
:1002D0006A00809186008093660083304CF58F5FC2
:1002E0008093860025C09923B1F08091610081112F
:1002F00012C080916D008823D9F080916A0090919E
:100300006B00883C910520F0809166008093860008
:1003100010926D000DC080916D00882349F080918E
:100320006A0090916B000A9690936B0080936A002C
:10033000211115C080916000882349F181E08093EC
:100340006C00109269001092680080918600809382
:1003500066008C3F4CF181508093860025C022239B
:10036000B1F080916000811112C080916C008823EF
:10037000D9F08091680090916900883C910520F047
:10038000809166008093860010926C000DC0809171
:100390006C00882349F080916800909169000A966A
:1003A000909369008093680010936100009360004F
:1003B0000FC0809167008111E5CE7ECF80916700EC
:1003C0008111DECE90CF809167008111EACE74CF8B
:1003D000DF91CF911F910F9108955F926F927F925D
:1003E0008F929F92AF92BF92CF92DF92EF92FF9245
:1003F0000F931F93CF93DF9360B276B20AE710E0BA
:100400000F2EFEE6EF2EF0E0FF2EF02D57016801D3
:10041000C0E0D0E088248394912C55245394AE01FD
:100420004D5F5F4F809162009E01280F311D8091CA
:100430008600082E000C990BBC01660F771F860FF3
:10044000971F880F991F880F991F820F931F80385D
:100450009105B8F5B40102C0660F771F4A95E2F71F
:10046000AB01662D642381F420916400422349F19D
:100470004FE7682F80918700FEDDF6015082809162
:100480008600F50180831DC0809164004823C9F473
:10049000F60180818823A9F0F5018081082E000CE7
:1004A000990BBC01660F771F680F791F660F771FC6
:1004B000660F771F620F731F80918700E9DDF601D9
:1004C00010822196FFEFCF1ADF0A6FEFA61AB60A45
:1004D000C430D10509F0A3CFC0E0D0E0CC24C39450
:1004E000D12CBB24B3942091620030E02C5F3F4FAD
:1004F0002C0F3D1F80918600082E000C990BBC012B
:10050000660F771F860F971F880F991F880F991FF7
:10051000820F931F80389105B8F5A6010C2E02C0FA
:10052000440F551F0A94E2F7672D642381F420914C
:100530006300422349F14FE7682F809187009BDDDC
:10054000F801B48280918600F70184831DC08091F8
:1005500063004823C9F4F80184818823A9F0F701D6
:100560008481082E000C990BBC01660F771F680F61
:10057000791F660F771F660F771F620F731F8091B9
:10058000870086DDF801148221960F5F1F4FFFEF71
:10059000EF1AFF0AC830D10509F0A5CF60926400B8
:1005A00070926300DF91CF911F910F91FF90EF90B8
:1005B000DF90CF90BF90AF909F908F907F906F9083
:1005C0005F9008958AB38C7F8ABB81B3827881BBA8
:1005D00087B317BA8BB383608BBB82B38D6782BB43
:1005E00088B38FEF88BB3BDD65DD73DDF6DE83EC22
:1005F00099E00197F1F700C00000F7CFF894FFCF22
:0606000001013CFFFF00B8
:00000001FF
